:1000000000000420F9020000210300002303000087
:100010002503000027030000290300000000000062
:100020000000000000000000000000002B030000A2
:100030002D030000000000002F030000310300002A
:1000400033030000330300003303000033030000D8
:1000500033030000330300003303000033030000C8
:1000600033030000330300003303000033030000B8
:1000700033030000330300003303000033030000A8
:100080003303000033030000330300003303000098
:100090003303000033030000330300003303000088
:1000A0003303000033030000330300003303000078
:1000B00033030000330300000000000000000000D4
:1000C0003303000033030000330300003303000058
:1000D0003303000033030000330300003303000048
:1000E000330300003303000033030000000000006E
:1000F0000000000033030000000000003303000094
:1001000000000000000000000000000000000000EF
:1001100000000000000000000000000000000000DF
:1001200000000000000000000000000000000000CF
:1001300000000000000000000000000000000000BF
:1001400000000000000000000000000000000000AF
:10015000000000000000000000000000000000009F
:10016000000000000000000000000000000000008F
:10017000000000000000000000000000000000007F
:10018000000000000000000000000000000000006F
:10019000000000000000000000000000000000005F
:1001A000000000000000000000000000000000004F
:1001B000000000000000000000000000000000003F
:1001C000000000000000000000000000000000002F
:1001D000000000000000000000000000000000001F
:1001E000000000000000000000000000000000000F
:1001F00000000000000000000000000000000000FF
:100200000348044B834202D0034B03B118477047A5
:100210007000002070000020000000000548064922
:100220000B1AD90F01EBA301491002D0034B03B104
:100230001847704770000020700000200000000088
:1002400010B5064C237843B9FFF7DAFF044B13B11E
:100250000448AFF300800123237010BD700000201C
:1002600000000000D008000008B5044B1BB1044991
:100270000448AFF30080BDE80840CFE7000000006D
:1002800074000020D0080000A3F5803A704700BF3A
:10029000154B002B08BF114B9D46FFF7F5FF0021C2
:1002A0008B460F461148124A121A00F00BFA0C4BFB
:1002B000002B00D098470B4B002B00D09847002014
:1002C000002104000D000B4800F0A4F900F0D6F95D
:1002D0002000290000F076F800F0A2F900000800E4
:1002E000000000000000000000000420700000205A
:1002F0001C010020490600000649074A074B9B1ACB
:1003000003DD043BC858D050FBDC00F073F8FFF766
:10031000BFFF0000DC08000000000020700000208B
:10032000FEE7FEE7FEE7FEE7FEE7FEE7FEE7FEE7A5
:10033000FEE7FEE70A4B185C1F288ABF09494FF009
:10034000A04100F01F00D1F804350122824022EACA
:1003500003001340C1F80805C1F80C35704700BF11
:10036000BC08000000030050C20730B40ED483075D
:100370000AD54FF0A0430C22C3F82C27C3F830272E
:10038000C3F86027C3F8642730BC70474FF0A04320
:100390000322C3F834274FF40055C3F838274FF42D
:1003A0008044C3F83C274FF40041C3F840274FF482
:1003B0008032C3F80855C3F80845C3F80815C3F8D8
:1003C0000825D4E770B50120094DFFF7CDFF45F0B2
:1003D000010500263046FFF7ADFF4FF4FA744FF4E5
:1003E0007A40A847013CFAD10136042EF2D1F0E759
:1003F000C008000010B4754B1B68082B1CD0744A51
:10040000D2F8883043F47003C2F88830BFF34F8FBE
:10041000BFF36F8F4FF01023D3F80022002AC0F2F1
:10042000A380D3F80432002BC0F29E80694B6A4A45
:100430001A605DF8044B70474FF080414FF08052D6
:100440000020C1F80C01654BC1F81001C1F8380556
:10045000D2F80414C3F82015D2F80814C3F82415F0
:10046000D2F80C14C3F82815D2F81014C3F82C15C0
:10047000D2F81414C3F83015D2F81814C3F8341590
:10048000D2F81C14C3F84015D2F82014C3F8441550
:10049000D2F82414C3F84815D2F82814C3F84C1520
:1004A000D2F82C14C3F85015D2F83014C3F85415F0
:1004B000D2F83414C3F86015D2F83814C3F86415B0
:1004C000D2F83C04C3F868054549D2F84004C3F8A3
:1004D0006C050968D2F84424C3F87025032937D87D
:1004E000404B5B5C13B1404B404A1A60404B5B5C35
:1004F00063B1364B3F491B68394AFB20C1F81805E8
:10050000082B11687FF47BAF032921D83A4B5B5C41
:1005100093B13A483A4B2D4C02681B682468304925
:1005200022F00F0203F00F031343082C0968036045
:100530007FF465AF03290BD8324B5B5C43B1234B8F
:10054000314A1B684FF40071082B11607FF457AFDC
:100550004FF08043D3F80024D2077FF550AF6FF0FF
:100560000102C3F800244AE7284A0123C2F80435EF
:10057000D2F80034002BFBD04FF010231221234A75
:10058000C3F80012D2F80034002BFBD04FF0102338
:1005900012211E4AC3F80412D2F80034002BFBD0FB
:1005A00000231A49C2F80435D1F80034002BFBD0DF
:1005B000BFF34F8F0649164BCA6802F4E06213433B
:1005C000CB60BFF34F8F00BFFDE700BF30010010CD
:1005D00000ED00E0000000200090D00300C00040CB
:1005E00034010010C80800008C5600404881030008
:1005F000C808000000F00040C8080000E40E0040F9
:1006000058020010C80800004096024000E0014077
:100610000400FA05002301461A46184600F0A2B865
:1006200008B5074B044613B1002100F0EBF8054B69
:100630001868836A03B19847204600F031F900BF7B
:1006400005080000CC08000038B50A4C0A4D641BB0
:10065000A4100AD004F18043013B05EB8305013C63
:1006600055F804399847002CF9D1BDE8384000F01E
:100670001FB900BF700000206C00002070B50D4E47
:100680000D4D761BB61006D00024013455F8043BFE
:100690009847A642F9D1094E094D761B00F002F9A0
:1006A000B61006D00024013455F8043B9847A64202
:1006B000F9D170BD68000020680000206C000020A7
:1006C00068000020F0B4860746D0541E002A3CD0B3
:1006D000CAB2034602E014F1FF3436D303F8012B0B
:1006E0009D07F8D1032C29D9CDB245EA05250F2C59
:1006F00045EA054533D9A4F11006360903F1200770
:1007000007EB061703F1100242E9045542E90255CE
:100710001032BA42F8D1721C14F00C0F03EB021223
:1007200004F00F0613D0331F23F0030304331344E4
:1007300042F8045B9342FBD106F003042CB1C9B22A
:100740001C4403F8011B9C42FBD1F0BC70473446AB
:100750001346002CF3D1F8E714460346C2E71A46C5
:100760002646E0E72DE9F843224C25680DB36C6876
:100770001F2C3BDC984691460F46064688B1D5F8BB
:10078000880028B3D0F8003140F824900122A2401C
:1007900000EB84011343022EC0F80031C1F88080C1
:1007A00010D0A31C01346C6045F823700020BDE814
:1007B000F883114E114D2560002ED8D03468C5F84D
:1007C0008840D4E7D0F804311A43C0F80421E8E7A0
:1007D0000B4B5BB14FF48470AFF3008030B100235A
:1007E0006C68C0E94033C5F88800CDE74FF0FF30B2
:1007F000DDE700BF18010020000000008C00002091
:10080000000000002DE9F04FDFF8908083B0D8F8A9
:10081000005001900F464FF0010A8DB16C68D5F879
:100820008860013C0CD405F1080B67B12EB106F1CC
:10083000800353F82430BB4205D014F1FF34F4D2C6
:1008400003B0BDE8F08F6B685BF82420013BA34246
:1008500016BF00236C604BF82430002AEDD0D5F889
:100860000490B6B1D6F800110AFA04F30B4210D086
:10087000D6F8040156F8241003420CD10198904791
:100880006B68D8F800204B4501D1AA42D5D0154657
:10089000C3E79047F4E708469047F1E718010020C6
:1008A000FEE700BFF8B500BFF8BC08BC9E46704725
:1008B000F8B500BFF8BC08BC9E4670470D0E0F107F
:1008C0000338FDD870470000010000000800002038
:0408D0000000000024
:0808D400B4F9FF7F01000000F0
:1008DC000090D00308000020000000000000000081
:1008EC0000000000000000000000000000000000FC
:1008FC0000000000000000000000000000000000EC
:10090C0000000000000000000000000000000000DB
:10091C0000000000000000000000000000000000CB
:10092C0000000000000000000000000000000000BB
:10093C0000000000000000006902000041020000FD
:04000003000002F9FE
:00000001FF
